{
  "_format": "hh-sol-artifact-1",
  "contractName": "DeliveryEscrow",
  "sourceName": "contracts/DeliveryEscrow.sol",
  "abi": [
    {
      "anonymous": false,
      "inputs": [
        {
          "indexed": true,
          "internalType": "uint256",
          "name": "jobId",
          "type": "uint256"
        },
        {
          "indexed": true,
          "internalType": "address",
          "name": "recipient",
          "type": "address"
        },
        {
          "indexed": true,
          "internalType": "address",
          "name": "feeWallet",
          "type": "address"
        },
        {
          "indexed": false,
          "internalType": "uint256",
          "name": "recipientAmount",
          "type": "uint256"
        },
        {
          "indexed": false,
          "internalType": "uint256",
          "name": "feeAmount",
          "type": "uint256"
        }
      ],
      "name": "JobCompleted",
      "type": "event"
    },
    {
      "anonymous": false,
      "inputs": [
        {
          "indexed": true,
          "internalType": "uint256",
          "name": "jobId",
          "type": "uint256"
        },
        {
          "indexed": false,
          "internalType": "uint256",
          "name": "amount",
          "type": "uint256"
        }
      ],
      "name": "JobFunded",
      "type": "event"
    },
    {
      "anonymous": false,
      "inputs": [
        {
          "indexed": true,
          "internalType": "uint256",
          "name": "jobId",
          "type": "uint256"
        },
        {
          "indexed": true,
          "internalType": "address",
          "name": "poster",
          "type": "address"
        },
        {
          "indexed": false,
          "internalType": "string",
          "name": "details",
          "type": "string"
        },
        {
          "indexed": false,
          "internalType": "address",
          "name": "recipient",
          "type": "address"
        },
        {
          "indexed": false,
          "internalType": "address",
          "name": "feeWallet",
          "type": "address"
        },
        {
          "indexed": false,
          "internalType": "uint256",
          "name": "amount",
          "type": "uint256"
        }
      ],
      "name": "JobPosted",
      "type": "event"
    },
    {
      "inputs": [],
      "name": "FEE_WALLET",
      "outputs": [
        {
          "internalType": "address",
          "name": "",
          "type": "address"
        }
      ],
      "stateMutability": "view",
      "type": "function"
    },
    {
      "inputs": [
        {
          "internalType": "uint256",
          "name": "jobId",
          "type": "uint256"
        }
      ],
      "name": "confirmDelivery",
      "outputs": [],
      "stateMutability": "nonpayable",
      "type": "function"
    },
    {
      "inputs": [],
      "name": "jobCount",
      "outputs": [
        {
          "internalType": "uint256",
          "name": "",
          "type": "uint256"
        }
      ],
      "stateMutability": "view",
      "type": "function"
    },
    {
      "inputs": [
        {
          "internalType": "uint256",
          "name": "",
          "type": "uint256"
        }
      ],
      "name": "jobs",
      "outputs": [
        {
          "internalType": "address",
          "name": "poster",
          "type": "address"
        },
        {
          "internalType": "address",
          "name": "recipient",
          "type": "address"
        },
        {
          "internalType": "address",
          "name": "feeWallet",
          "type": "address"
        },
        {
          "internalType": "string",
          "name": "details",
          "type": "string"
        },
        {
          "internalType": "uint256",
          "name": "amount",
          "type": "uint256"
        },
        {
          "internalType": "bool",
          "name": "funded",
          "type": "bool"
        },
        {
          "internalType": "bool",
          "name": "completed",
          "type": "bool"
        }
      ],
      "stateMutability": "view",
      "type": "function"
    },
    {
      "inputs": [
        {
          "internalType": "string",
          "name": "details",
          "type": "string"
        },
        {
          "internalType": "address",
          "name": "recipient",
          "type": "address"
        }
      ],
      "name": "postJob",
      "outputs": [
        {
          "internalType": "uint256",
          "name": "",
          "type": "uint256"
        }
      ],
      "stateMutability": "payable",
      "type": "function"
    }
  ],
  "bytecode": "0x608060405234801561001057600080fd5b50611747806100206000396000f3fe60806040526004361061004a5760003560e01c8063180aedf31461004f57806344cd7948146100925780634c5d8a0f146100bd578063a5447492146100e8578063fd84cb9714610118575b600080fd5b34801561005b57600080fd5b5061007660048036038101906100719190610b2d565b610141565b6040516100899796959493929190610c55565b60405180910390f35b34801561009e57600080fd5b506100a7610285565b6040516100b49190610ccb565b60405180910390f35b3480156100c957600080fd5b506100d261029d565b6040516100df9190610ce6565b60405180910390f35b61010260048036038101906100fd9190610d92565b6102a3565b60405161010f9190610ce6565b60405180910390f35b34801561012457600080fd5b5061013f600480360381019061013a9190610b2d565b6106f7565b005b60016020528060005260406000206000915090508060000160009054906101000a900473ffffffffffffffffffffffffffffffffffffffff16908060010160009054906101000a900473ffffffffffffffffffffffffffffffffffffffff16908060020160009054906101000a900473ffffffffffffffffffffffffffffffffffffffff16908060030180546101d690610e21565b80601f016020809104026020016040519081016040528092919081815260200182805461020290610e21565b801561024f5780601f106102245761010080835404028352916020019161024f565b820191906000526020600020905b81548152906001019060200180831161023257829003601f168201915b5050505050908060040154908060050160009054906101000a900460ff16908060050160019054906101000a900460ff16905087565b73670298e73c5e6735e1fdbed858be1d6a26db00b181565b60005481565b60008034116102e7576040517f08c379a00000000000000000000000000000000000000000000000000000000081526004016102de90610e9e565b60405180910390fd5b600073ffffffffffffffffffffffffffffffffffffffff168273ffffffffffffffffffffffffffffffffffffffff1603610356576040517f08c379a000000000000000000000000000000000000000000000000000000000815260040161034d90610f0a565b60405180910390fd5b3373ffffffffffffffffffffffffffffffffffffffff168273ffffffffffffffffffffffffffffffffffffffff16036103c4576040517f08c379a00000000000000000000000000000000000000000000000000000000081526004016103bb90610f76565b60405180910390fd5b66038d7ea4c6800034101561040e576040517f08c379a000000000000000000000000000000000000000000000000000000000815260040161040590610fe2565b60405180910390fd5b60008081548092919061042090611031565b91905055506040518060e001604052803373ffffffffffffffffffffffffffffffffffffffff1681526020018373ffffffffffffffffffffffffffffffffffffffff16815260200173670298e73c5e6735e1fdbed858be1d6a26db00b173ffffffffffffffffffffffffffffffffffffffff16815260200185858080601f016020809104026020016040519081016040528093929190818152602001838380828437600081840152601f19601f82011690508083019250505050505050815260200134815260200160011515815260200160001515815250600160008054815260200190815260200160002060008201518160000160006101000a81548173ffffffffffffffffffffffffffffffffffffffff021916908373ffffffffffffffffffffffffffffffffffffffff16021790555060208201518160010160006101000a81548173ffffffffffffffffffffffffffffffffffffffff021916908373ffffffffffffffffffffffffffffffffffffffff16021790555060408201518160020160006101000a81548173ffffffffffffffffffffffffffffffffffffffff021916908373ffffffffffffffffffffffffffffffffffffffff16021790555060608201518160030190816105f69190611254565b506080820151816004015560a08201518160050160006101000a81548160ff02191690831515021790555060c08201518160050160016101000a81548160ff0219169083151502179055509050503373ffffffffffffffffffffffffffffffffffffffff166000547f3ac7a9cede135ca75418ce7fd6e2cbe50bfe9e7dc51d5ca3e0a56916b8dbd37586868673670298e73c5e6735e1fdbed858be1d6a26db00b1346040516106a9959493929190611362565b60405180910390a36000547f9d25c5cf940eed311c45e5a0b4c7c8790a356d3c356453b76bb7e232db3f384a346040516106e39190610ce6565b60405180910390a260005490509392505050565b60006001600083815260200190815260200160002090508060050160009054906101000a900460ff1661075f576040517f08c379a0000000000000000000000000000000000000000000000000000000008152600401610756906113fc565b60405180910390fd5b8060050160019054906101000a900460ff16156107b1576040517f08c379a00000000000000000000000000000000000000000000000000000000081526004016107a890611468565b60405180910390fd5b8060000160009054906101000a900473ffffffffffffffffffffffffffffffffffffffff1673ffffffffffffffffffffffffffffffffffffffff163373ffffffffffffffffffffffffffffffffffffffff1614610843576040517f08c379a000000000000000000000000000000000000000000000000000000000815260040161083a906114d4565b60405180910390fd5b60018160050160016101000a81548160ff02191690831515021790555060006064605a836004015461087591906114f4565b61087f9190611565565b905060008183600401546108939190611596565b905060008360010160009054906101000a900473ffffffffffffffffffffffffffffffffffffffff1673ffffffffffffffffffffffffffffffffffffffff16836040516108df906115fb565b60006040518083038185875af1925050503d806000811461091c576040519150601f19603f3d011682016040523d82523d6000602084013e610921565b606091505b5050905080610965576040517f08c379a000000000000000000000000000000000000000000000000000000000815260040161095c9061165c565b60405180910390fd5b60008460020160009054906101000a900473ffffffffffffffffffffffffffffffffffffffff1673ffffffffffffffffffffffffffffffffffffffff16836040516109af906115fb565b60006040518083038185875af1925050503d80600081146109ec576040519150601f19603f3d011682016040523d82523d6000602084013e6109f1565b606091505b5050905080610a35576040517f08c379a0000000000000000000000000000000000000000000000000000000008152600401610a2c906116c8565b60405180910390fd5b8460020160009054906101000a900473ffffffffffffffffffffffffffffffffffffffff1673ffffffffffffffffffffffffffffffffffffffff168560010160009054906101000a900473ffffffffffffffffffffffffffffffffffffffff1673ffffffffffffffffffffffffffffffffffffffff16877ffed127ac62eb95ebd45acba7e16b5fb917da5a4b15c165b273bc6c40ef877b008787604051610add9291906116e8565b60405180910390a4505050505050565b600080fd5b600080fd5b6000819050919050565b610b0a81610af7565b8114610b1557600080fd5b50565b600081359050610b2781610b01565b92915050565b600060208284031215610b4357610b42610aed565b5b6000610b5184828501610b18565b91505092915050565b600073ffffffffffffffffffffffffffffffffffffffff82169050919050565b6000610b8582610b5a565b9050919050565b610b9581610b7a565b82525050565b600081519050919050565b600082825260208201905092915050565b60005b83811015610bd5578082015181840152602081019050610bba565b60008484015250505050565b6000601f19601f8301169050919050565b6000610bfd82610b9b565b610c078185610ba6565b9350610c17818560208601610bb7565b610c2081610be1565b840191505092915050565b610c3481610af7565b82525050565b60008115159050919050565b610c4f81610c3a565b82525050565b600060e082019050610c6a600083018a610b8c565b610c776020830189610b8c565b610c846040830188610b8c565b8181036060830152610c968187610bf2565b9050610ca56080830186610c2b565b610cb260a0830185610c46565b610cbf60c0830184610c46565b98975050505050505050565b6000602082019050610ce06000830184610b8c565b92915050565b6000602082019050610cfb6000830184610c2b565b92915050565b600080fd5b600080fd5b600080fd5b60008083601f840112610d2657610d25610d01565b5b8235905067ffffffffffffffff811115610d4357610d42610d06565b5b602083019150836001820283011115610d5f57610d5e610d0b565b5b9250929050565b610d6f81610b7a565b8114610d7a57600080fd5b50565b600081359050610d8c81610d66565b92915050565b600080600060408486031215610dab57610daa610aed565b5b600084013567ffffffffffffffff811115610dc957610dc8610af2565b5b610dd586828701610d10565b93509350506020610de886828701610d7d565b9150509250925092565b7f4e487b7100000000000000000000000000000000000000000000000000000000600052602260045260246000fd5b60006002820490506001821680610e3957607f821691505b602082108103610e4c57610e4b610df2565b5b50919050565b7f4d7573742066756e64206a6f6200000000000000000000000000000000000000600082015250565b6000610e88600d83610ba6565b9150610e9382610e52565b602082019050919050565b60006020820190508181036000830152610eb781610e7b565b9050919050565b7f526563697069656e742063616e6e6f74206265207a65726f2061646472657373600082015250565b6000610ef4602083610ba6565b9150610eff82610ebe565b602082019050919050565b60006020820190508181036000830152610f2381610ee7565b9050919050565b7f526563697069656e742063616e6e6f742062652073656e646572000000000000600082015250565b6000610f60601a83610ba6565b9150610f6b82610f2a565b602082019050919050565b60006020820190508181036000830152610f8f81610f53565b9050919050565b7f4d696e696d756d20302e30303120534549207265717569726564000000000000600082015250565b6000610fcc601a83610ba6565b9150610fd782610f96565b602082019050919050565b60006020820190508181036000830152610ffb81610fbf565b9050919050565b7f4e487b7100000000000000000000000000000000000000000000000000000000600052601160045260246000fd5b600061103c82610af7565b91507fffffffffffffffffffffffffffffffffffffffffffffffffffffffffffffffff820361106e5761106d611002565b5b600182019050919050565b7f4e487b7100000000000000000000000000000000000000000000000000000000600052604160045260246000fd5b60008190508160005260206000209050919050565b60006020601f8301049050919050565b600082821b905092915050565b60006008830261110a7fffffffffffffffffffffffffffffffffffffffffffffffffffffffffffffffff826110cd565b61111486836110cd565b95508019841693508086168417925050509392505050565b6000819050919050565b600061115161114c61114784610af7565b61112c565b610af7565b9050919050565b6000819050919050565b61116b83611136565b61117f61117782611158565b8484546110da565b825550505050565b600090565b611194611187565b61119f818484611162565b505050565b5b818110156111c3576111b860008261118c565b6001810190506111a5565b5050565b601f821115611208576111d9816110a8565b6111e2846110bd565b810160208510156111f1578190505b6112056111fd856110bd565b8301826111a4565b50505b505050565b600082821c905092915050565b600061122b6000198460080261120d565b1980831691505092915050565b6000611244838361121a565b9150826002028217905092915050565b61125d82610b9b565b67ffffffffffffffff81111561127657611275611079565b5b6112808254610e21565b61128b8282856111c7565b600060209050601f8311600181146112be57600084156112ac578287015190505b6112b68582611238565b86555061131e565b601f1984166112cc866110a8565b60005b828110156112f4578489015182556001820191506020850194506020810190506112cf565b86831015611311578489015161130d601f89168261121a565b8355505b6001600288020188555050505b505050505050565b82818337600083830152505050565b60006113418385610ba6565b935061134e838584611326565b61135783610be1565b840190509392505050565b6000608082019050818103600083015261137d818789611335565b905061138c6020830186610b8c565b6113996040830185610b8c565b6113a66060830184610c2b565b9695505050505050565b7f4a6f62206e6f742066756e646564000000000000000000000000000000000000600082015250565b60006113e6600e83610ba6565b91506113f1826113b0565b602082019050919050565b60006020820190508181036000830152611415816113d9565b9050919050565b7f416c726561647920636f6d706c65746564000000000000000000000000000000600082015250565b6000611452601183610ba6565b915061145d8261141c565b602082019050919050565b6000602082019050818103600083015261148181611445565b9050919050565b7f4f6e6c7920706f737465722063616e20636f6e6669726d000000000000000000600082015250565b60006114be601783610ba6565b91506114c982611488565b602082019050919050565b600060208201905081810360008301526114ed816114b1565b9050919050565b60006114ff82610af7565b915061150a83610af7565b925082820261151881610af7565b9150828204841483151761152f5761152e611002565b5b5092915050565b7f4e487b7100000000000000000000000000000000000000000000000000000000600052601260045260246000fd5b600061157082610af7565b915061157b83610af7565b92508261158b5761158a611536565b5b828204905092915050565b60006115a182610af7565b91506115ac83610af7565b92508282039050818111156115c4576115c3611002565b5b92915050565b600081905092915050565b50565b60006115e56000836115ca565b91506115f0826115d5565b600082019050919050565b6000611606826115d8565b9150819050919050565b7f4661696c656420746f2073656e6420746f20726563697069656e740000000000600082015250565b6000611646601b83610ba6565b915061165182611610565b602082019050919050565b6000602082019050818103600083015261167581611639565b9050919050565b7f4661696c656420746f2073656e6420746f206665652077616c6c657400000000600082015250565b60006116b2601c83610ba6565b91506116bd8261167c565b602082019050919050565b600060208201905081810360008301526116e1816116a5565b9050919050565b60006040820190506116fd6000830185610c2b565b61170a6020830184610c2b565b939250505056fea26469706673582212205d15947284b2e53545b5d19b4a23cd990ef7e57516f9344f4415230f4d31c89864736f6c63430008140033",
  "linkReferences": {},
  "deployedLinkReferences": {}
}