{
  "_format": "hh-sol-artifact-1",
  "contractName": "DeliveryEscrow",
  "sourceName": "contracts/DeliveryEscrow.sol",
  "abi": [
    {
      "anonymous": false,
      "inputs": [
        {
          "indexed": true,
          "internalType": "uint256",
          "name": "jobId",
          "type": "uint256"
        },
        {
          "indexed": true,
          "internalType": "address",
          "name": "recipient",
          "type": "address"
        }
      ],
      "name": "JobCompleted",
      "type": "event"
    },
    {
      "anonymous": false,
      "inputs": [
        {
          "indexed": true,
          "internalType": "uint256",
          "name": "jobId",
          "type": "uint256"
        },
        {
          "indexed": false,
          "internalType": "uint256",
          "name": "amount",
          "type": "uint256"
        }
      ],
      "name": "JobFunded",
      "type": "event"
    },
    {
      "anonymous": false,
      "inputs": [
        {
          "indexed": true,
          "internalType": "uint256",
          "name": "jobId",
          "type": "uint256"
        },
        {
          "indexed": true,
          "internalType": "address",
          "name": "poster",
          "type": "address"
        },
        {
          "indexed": false,
          "internalType": "string",
          "name": "details",
          "type": "string"
        },
        {
          "indexed": false,
          "internalType": "address",
          "name": "recipient",
          "type": "address"
        },
        {
          "indexed": false,
          "internalType": "uint256",
          "name": "amount",
          "type": "uint256"
        }
      ],
      "name": "JobPosted",
      "type": "event"
    },
    {
      "anonymous": false,
      "inputs": [
        {
          "indexed": true,
          "internalType": "address",
          "name": "user",
          "type": "address"
        },
        {
          "indexed": false,
          "internalType": "bytes32",
          "name": "location",
          "type": "bytes32"
        }
      ],
      "name": "LocationRegistered",
      "type": "event"
    },
    {
      "anonymous": false,
      "inputs": [
        {
          "indexed": true,
          "internalType": "address",
          "name": "user",
          "type": "address"
        },
        {
          "indexed": false,
          "internalType": "bytes32",
          "name": "location",
          "type": "bytes32"
        }
      ],
      "name": "LocationUpdated",
      "type": "event"
    },
    {
      "inputs": [
        {
          "internalType": "uint256",
          "name": "jobId",
          "type": "uint256"
        }
      ],
      "name": "confirmDelivery",
      "outputs": [],
      "stateMutability": "nonpayable",
      "type": "function"
    },
    {
      "inputs": [
        {
          "internalType": "address",
          "name": "user",
          "type": "address"
        }
      ],
      "name": "getLocation",
      "outputs": [
        {
          "internalType": "bytes32",
          "name": "",
          "type": "bytes32"
        }
      ],
      "stateMutability": "view",
      "type": "function"
    },
    {
      "inputs": [],
      "name": "jobCount",
      "outputs": [
        {
          "internalType": "uint256",
          "name": "",
          "type": "uint256"
        }
      ],
      "stateMutability": "view",
      "type": "function"
    },
    {
      "inputs": [
        {
          "internalType": "uint256",
          "name": "",
          "type": "uint256"
        }
      ],
      "name": "jobs",
      "outputs": [
        {
          "internalType": "address",
          "name": "poster",
          "type": "address"
        },
        {
          "internalType": "address",
          "name": "recipient",
          "type": "address"
        },
        {
          "internalType": "string",
          "name": "details",
          "type": "string"
        },
        {
          "internalType": "uint256",
          "name": "amount",
          "type": "uint256"
        },
        {
          "internalType": "bool",
          "name": "funded",
          "type": "bool"
        },
        {
          "internalType": "bool",
          "name": "completed",
          "type": "bool"
        }
      ],
      "stateMutability": "view",
      "type": "function"
    },
    {
      "inputs": [
        {
          "internalType": "address",
          "name": "",
          "type": "address"
        }
      ],
      "name": "locations",
      "outputs": [
        {
          "internalType": "bytes32",
          "name": "",
          "type": "bytes32"
        }
      ],
      "stateMutability": "view",
      "type": "function"
    },
    {
      "inputs": [
        {
          "internalType": "string",
          "name": "details",
          "type": "string"
        },
        {
          "internalType": "address",
          "name": "recipient",
          "type": "address"
        }
      ],
      "name": "postJob",
      "outputs": [
        {
          "internalType": "uint256",
          "name": "",
          "type": "uint256"
        }
      ],
      "stateMutability": "payable",
      "type": "function"
    },
    {
      "inputs": [
        {
          "internalType": "bytes32",
          "name": "location",
          "type": "bytes32"
        }
      ],
      "name": "registerLocation",
      "outputs": [],
      "stateMutability": "nonpayable",
      "type": "function"
    },
    {
      "inputs": [
        {
          "internalType": "bytes32",
          "name": "location",
          "type": "bytes32"
        }
      ],
      "name": "updateLocation",
      "outputs": [],
      "stateMutability": "nonpayable",
      "type": "function"
    }
  ],
  "bytecode": "0x608060405234801561001057600080fd5b5061161a806100206000396000f3fe60806040526004361061007b5760003560e01c8063bdc86aab1161004e578063bdc86aab14610146578063c7ec414d14610183578063d9e0dc59146101ac578063fd84cb97146101e95761007b565b8063180aedf31461008057806337a27126146100c25780634c5d8a0f146100eb578063a544749214610116575b600080fd5b34801561008c57600080fd5b506100a760048036038101906100a29190610b74565b610212565b6040516100b996959493929190610c9c565b60405180910390f35b3480156100ce57600080fd5b506100e960048036038101906100e49190610d3a565b610330565b005b3480156100f757600080fd5b5061010061048c565b60405161010d9190610d67565b60405180910390f35b610130600480360381019061012b9190610e13565b610492565b60405161013d9190610d67565b60405180910390f35b34801561015257600080fd5b5061016d60048036038101906101689190610e73565b610734565b60405161017a9190610eaf565b60405180910390f35b34801561018f57600080fd5b506101aa60048036038101906101a59190610d3a565b61074c565b005b3480156101b857600080fd5b506101d360048036038101906101ce9190610e73565b6108a8565b6040516101e09190610eaf565b60405180910390f35b3480156101f557600080fd5b50610210600480360381019061020b9190610b74565b6108f0565b005b60026020528060005260406000206000915090508060000160009054906101000a900473ffffffffffffffffffffffffffffffffffffffff16908060010160009054906101000a900473ffffffffffffffffffffffffffffffffffffffff169080600201805461028190610ef9565b80601f01602080910402602001604051908101604052809291908181526020018280546102ad90610ef9565b80156102fa5780601f106102cf576101008083540402835291602001916102fa565b820191906000526020600020905b8154815290600101906020018083116102dd57829003601f168201915b5050505050908060030154908060040160009054906101000a900460ff16908060040160019054906101000a900460ff16905086565b6000801b8103610375576040517f08c379a000000000000000000000000000000000000000000000000000000000815260040161036c90610f76565b60405180910390fd5b6000801b6000803373ffffffffffffffffffffffffffffffffffffffff1673ffffffffffffffffffffffffffffffffffffffff16815260200190815260200160002054036103f8576040517f08c379a00000000000000000000000000000000000000000000000000000000081526004016103ef90610fe2565b60405180910390fd5b806000803373ffffffffffffffffffffffffffffffffffffffff1673ffffffffffffffffffffffffffffffffffffffff168152602001908152602001600020819055503373ffffffffffffffffffffffffffffffffffffffff167fb668c683f2540ba8ba0a0f14dfce970488d07ccafc6341fed97a82dec743aa91826040516104819190610eaf565b60405180910390a250565b60015481565b60008034116104d6576040517f08c379a00000000000000000000000000000000000000000000000000000000081526004016104cd9061104e565b60405180910390fd5b600160008154809291906104e99061109d565b91905055506040518060c001604052803373ffffffffffffffffffffffffffffffffffffffff1681526020018373ffffffffffffffffffffffffffffffffffffffff16815260200185858080601f016020809104026020016040519081016040528093929190818152602001838380828437600081840152601f19601f8201169050808301925050505050505081526020013481526020016001151581526020016000151581525060026000600154815260200190815260200160002060008201518160000160006101000a81548173ffffffffffffffffffffffffffffffffffffffff021916908373ffffffffffffffffffffffffffffffffffffffff16021790555060208201518160010160006101000a81548173ffffffffffffffffffffffffffffffffffffffff021916908373ffffffffffffffffffffffffffffffffffffffff160217905550604082015181600201908161064991906112c0565b506060820151816003015560808201518160040160006101000a81548160ff02191690831515021790555060a08201518160040160016101000a81548160ff0219169083151502179055509050503373ffffffffffffffffffffffffffffffffffffffff166001547fdc784374f8461f7310e4164aceebc19ee563d80aa14f72524ea483e89743fa21868686346040516106e694939291906113ce565b60405180910390a36001547f9d25c5cf940eed311c45e5a0b4c7c8790a356d3c356453b76bb7e232db3f384a346040516107209190610d67565b60405180910390a260015490509392505050565b60006020528060005260406000206000915090505481565b6000801b8103610791576040517f08c379a000000000000000000000000000000000000000000000000000000000815260040161078890610f76565b60405180910390fd5b6000801b6000803373ffffffffffffffffffffffffffffffffffffffff1673ffffffffffffffffffffffffffffffffffffffff1681526020019081526020016000205414610814576040517f08c379a000000000000000000000000000000000000000000000000000000000815260040161080b90611480565b60405180910390fd5b806000803373ffffffffffffffffffffffffffffffffffffffff1673ffffffffffffffffffffffffffffffffffffffff168152602001908152602001600020819055503373ffffffffffffffffffffffffffffffffffffffff167fa95e3e9199c438186b1e5873c55aaa55344cea35f6d70feb019ca2f334fd025c8260405161089d9190610eaf565b60405180910390a250565b60008060008373ffffffffffffffffffffffffffffffffffffffff1673ffffffffffffffffffffffffffffffffffffffff168152602001908152602001600020549050919050565b60006002600083815260200190815260200160002090508060040160009054906101000a900460ff16610958576040517f08c379a000000000000000000000000000000000000000000000000000000000815260040161094f906114ec565b60405180910390fd5b8060040160019054906101000a900460ff16156109aa576040517f08c379a00000000000000000000000000000000000000000000000000000000081526004016109a190611558565b60405180910390fd5b8060000160009054906101000a900473ffffffffffffffffffffffffffffffffffffffff1673ffffffffffffffffffffffffffffffffffffffff163373ffffffffffffffffffffffffffffffffffffffff1614610a3c576040517f08c379a0000000000000000000000000000000000000000000000000000000008152600401610a33906115c4565b60405180910390fd5b60018160040160016101000a81548160ff0219169083151502179055508060010160009054906101000a900473ffffffffffffffffffffffffffffffffffffffff1673ffffffffffffffffffffffffffffffffffffffff166108fc82600301549081150290604051600060405180830381858888f19350505050158015610ac7573d6000803e3d6000fd5b508060010160009054906101000a900473ffffffffffffffffffffffffffffffffffffffff1673ffffffffffffffffffffffffffffffffffffffff16827f16a7286196330eaff0c7db2ec34ead9c6d2d023b356b62ee7ea644c842a84b6760405160405180910390a35050565b600080fd5b600080fd5b6000819050919050565b610b5181610b3e565b8114610b5c57600080fd5b50565b600081359050610b6e81610b48565b92915050565b600060208284031215610b8a57610b89610b34565b5b6000610b9884828501610b5f565b91505092915050565b600073ffffffffffffffffffffffffffffffffffffffff82169050919050565b6000610bcc82610ba1565b9050919050565b610bdc81610bc1565b82525050565b600081519050919050565b600082825260208201905092915050565b60005b83811015610c1c578082015181840152602081019050610c01565b60008484015250505050565b6000601f19601f8301169050919050565b6000610c4482610be2565b610c4e8185610bed565b9350610c5e818560208601610bfe565b610c6781610c28565b840191505092915050565b610c7b81610b3e565b82525050565b60008115159050919050565b610c9681610c81565b82525050565b600060c082019050610cb16000830189610bd3565b610cbe6020830188610bd3565b8181036040830152610cd08187610c39565b9050610cdf6060830186610c72565b610cec6080830185610c8d565b610cf960a0830184610c8d565b979650505050505050565b6000819050919050565b610d1781610d04565b8114610d2257600080fd5b50565b600081359050610d3481610d0e565b92915050565b600060208284031215610d5057610d4f610b34565b5b6000610d5e84828501610d25565b91505092915050565b6000602082019050610d7c6000830184610c72565b92915050565b600080fd5b600080fd5b600080fd5b60008083601f840112610da757610da6610d82565b5b8235905067ffffffffffffffff811115610dc457610dc3610d87565b5b602083019150836001820283011115610de057610ddf610d8c565b5b9250929050565b610df081610bc1565b8114610dfb57600080fd5b50565b600081359050610e0d81610de7565b92915050565b600080600060408486031215610e2c57610e2b610b34565b5b600084013567ffffffffffffffff811115610e4a57610e49610b39565b5b610e5686828701610d91565b93509350506020610e6986828701610dfe565b9150509250925092565b600060208284031215610e8957610e88610b34565b5b6000610e9784828501610dfe565b91505092915050565b610ea981610d04565b82525050565b6000602082019050610ec46000830184610ea0565b92915050565b7f4e487b7100000000000000000000000000000000000000000000000000000000600052602260045260246000fd5b60006002820490506001821680610f1157607f821691505b602082108103610f2457610f23610eca565b5b50919050565b7f4c6f636174696f6e207265717569726564000000000000000000000000000000600082015250565b6000610f60601183610bed565b9150610f6b82610f2a565b602082019050919050565b60006020820190508181036000830152610f8f81610f53565b9050919050565b7f4e6f742072656769737465726564207965742e00000000000000000000000000600082015250565b6000610fcc601383610bed565b9150610fd782610f96565b602082019050919050565b60006020820190508181036000830152610ffb81610fbf565b9050919050565b7f4d7573742066756e64206a6f6200000000000000000000000000000000000000600082015250565b6000611038600d83610bed565b915061104382611002565b602082019050919050565b600060208201905081810360008301526110678161102b565b9050919050565b7f4e487b7100000000000000000000000000000000000000000000000000000000600052601160045260246000fd5b60006110a882610b3e565b91507fffffffffffffffffffffffffffffffffffffffffffffffffffffffffffffffff82036110da576110d961106e565b5b600182019050919050565b7f4e487b7100000000000000000000000000000000000000000000000000000000600052604160045260246000fd5b60008190508160005260206000209050919050565b60006020601f8301049050919050565b600082821b905092915050565b6000600883026111767fffffffffffffffffffffffffffffffffffffffffffffffffffffffffffffffff82611139565b6111808683611139565b95508019841693508086168417925050509392505050565b6000819050919050565b60006111bd6111b86111b384610b3e565b611198565b610b3e565b9050919050565b6000819050919050565b6111d7836111a2565b6111eb6111e3826111c4565b848454611146565b825550505050565b600090565b6112006111f3565b61120b8184846111ce565b505050565b5b8181101561122f576112246000826111f8565b600181019050611211565b5050565b601f8211156112745761124581611114565b61124e84611129565b8101602085101561125d578190505b61127161126985611129565b830182611210565b50505b505050565b600082821c905092915050565b600061129760001984600802611279565b1980831691505092915050565b60006112b08383611286565b9150826002028217905092915050565b6112c982610be2565b67ffffffffffffffff8111156112e2576112e16110e5565b5b6112ec8254610ef9565b6112f7828285611233565b600060209050601f83116001811461132a5760008415611318578287015190505b61132285826112a4565b86555061138a565b601f19841661133886611114565b60005b828110156113605784890151825560018201915060208501945060208101905061133b565b8683101561137d5784890151611379601f891682611286565b8355505b6001600288020188555050505b505050505050565b82818337600083830152505050565b60006113ad8385610bed565b93506113ba838584611392565b6113c383610c28565b840190509392505050565b600060608201905081810360008301526113e98186886113a1565b90506113f86020830185610bd3565b6114056040830184610c72565b95945050505050565b7f416c726561647920726567697374657265642e20557365207570646174654c6f60008201527f636174696f6e2e00000000000000000000000000000000000000000000000000602082015250565b600061146a602783610bed565b91506114758261140e565b604082019050919050565b600060208201905081810360008301526114998161145d565b9050919050565b7f4a6f62206e6f742066756e646564000000000000000000000000000000000000600082015250565b60006114d6600e83610bed565b91506114e1826114a0565b602082019050919050565b60006020820190508181036000830152611505816114c9565b9050919050565b7f416c726561647920636f6d706c65746564000000000000000000000000000000600082015250565b6000611542601183610bed565b915061154d8261150c565b602082019050919050565b6000602082019050818103600083015261157181611535565b9050919050565b7f4f6e6c7920706f737465722063616e20636f6e6669726d000000000000000000600082015250565b60006115ae601783610bed565b91506115b982611578565b602082019050919050565b600060208201905081810360008301526115dd816115a1565b905091905056fea26469706673582212201a1e8434381e4ee36a19f26a33d766270600c26c7c94ba083f09837bc595703564736f6c63430008140033",
  "linkReferences": {},
  "deployedLinkReferences": {}
}